:020000001028C6
:10000800FE00030EF8000408F9000A08FA0083123B
:1000180003137F08FB00702B112883011328073076
:10002800831203139F00A030C500450883160313ED
:100038008505A03083120313C5004508850583167E
:1000480003138517CF3083120313C50045088316A1
:1000580003138C058117213083120313C50045084B
:100068008316031386042F3083120313C500450833
:100078008316031386050B108B15831203131008C0
:10008800CF39103890009011901010108E018F0108
:10009800FC3092051708F0390C3897003130831678
:1000A80003139200F9308312031395009712171265
:1000B800F730C5004508831603138605831203131A
:1000C800121586150030CA000030C9000030C8007B
:1000D8000030C70086170030CA000030C900003061
:1000E800C8000030C700CA1B89284A08031DA92870
:1000F8004908031DA92875304802031D8728303098
:100108004702031D87280318A9280130C7070030B4
:1001180003180130C807003003180130C907003040
:1001280003180130CA07CA1B89284A08031DA928D1
:100138004908031DA92875304802031DA728303037
:100148004702031DA728031C892886130030CA000C
:100158000030C9000030C8000030C700CA1BC428DE
:100168004A08031DE4284908031DE428753048029D
:10017800031DC22830304702031DC2280318E42893
:100188000130C707003003180130C80700300318D2
:100198000130C907003003180130CA07CA1BC42838
:1001A8004A08031DE4284908031DE428753048025D
:1001B800031DE22830304702031DE228031CC4282F
:1001C800061CE4280030CA000030C9000030C8000E
:1001D8000030C700CA1B00294A08031D2029490806
:1001E800031D202975304802031DFE2830304702C0
:1001F800031DFE28031820290130C7070030031803
:100208000130C807003003180130C907003003184F
:100218000130CA07CA1B00294A08031D20294908BA
:10022800031D202975304802031D1E29303047025E
:10023800031D1E29031C002986170030CA00003040
:10024800C9000030C8000030C700CA1B3B294A0853
:10025800031D5B294908031D5B2975304802031DEE
:10026800392930304702031D392903185B29013029
:10027800C707003003180130C807003003180130E1
:10028800C907003003180130CA07CA1B3B294A08AE
:10029800031D5B294908031D5B2975304802031DAE
:1002A800592930304702031D5929031C3B2986135D
:1002B8000030CA000030C9000030C8000030C70054
:1002C800CA1B76294A08031D96294908031D962941
:1002D80075304802031D742930304702031D742904
:1002E800031896290130C707003003180130C807E2
:1002F800003003180130C907003003180130CA075D
:10030800CA1B76294A08031D96294908031D962900
:1003180075304802031D942930304702031D942983
:10032800031C76298B2283120313C5004508C600D7
:10033800E829851085110030A3000030A2000030A4
:10034800A1003230A000EA22831203130514051518
:100358000030A3000030A2000330A100E830A00064
:10036800EA22F529851005110030A3000030A2000B
:100378000030A1003230A000EA22831203130514D2
:1003880085150030A3000030A2000330A100E8303A
:10039800A000EA22F529051085110030A3000030DD
:1003A800A2000030A1003230A000EA228312031319
:1003B800851405150030A3000030A2000330A10009
:1003C800E830A000EA22F5298312031346088400C6
:1003D800043004020318F52903308A00E5300407C5
:1003E80082008312031305108510051185119629C3
:1003F80083120313AA01A31F0E2AA009A109A209A7
:10040800A309A00A0319A10A0319A20A0319A30A36
:10041800AA01AA0AA71F1F2AA409A509A609A709AC
:10042800A40A0319A50A0319A60A0319A70A013081
:10043800A8002808AA060030AE000030AD00003041
:10044800AC000030AB002308220421042004031967
:10045800742AA901A90AA31B3F2A0130A800031086
:10046800A00DA10DA20DA30DA80B332A0130A800E1
:100478002808A9072F2A0130A8000310AB0DAC0DDE
:10048800AD0DAE0DA80B412A23082702031D562ADD
:1004980022082602031D562A21082502031D562A72
:1004A80020082402031C672A2008A4022108031C30
:1004B800210FA5022208031C220FA6022308031CF1
:1004C800230FA7022B1401300310A30CA20CA10CBC
:1004D800A00CFF3E031D682A0130A902031D3F2A14
:1004E8002A080319822AAB09AC09AD09AE09AB0A7F
:1004F8000319AC0A0319AD0A0319AE0A2E08A300A2
:100508002D08A2002C08A1002B08A000080000302C
:1005180083120313A3000030A2000130A1002C3085
:10052800A000EA228312031305138E018F01003005
:10053800B2000030B1000030B0000430AF00A92391
:100548008312031305178E018F01101400300F0258
:10055800053003190E02031CAA2A051310108E0178
:100568008F01851FB52A1014851BB82A10100F0893
:10057800B8000E08B7000310B70DB80D3708B9005A
:100588003808BA00BB01BC0101308400DB23BD0080
:10059800DB23BE00DB23BF00DB23C0004008803A1A
:1005A800FF003C08803A7F02031DE42A3B083F0213
:1005B800031DE42A3A083E02031DE42A39083D02D5
:1005C800031CE82A013008000230080083120313D4
:1005D8008E018F010030A7000030A6000030A50072
:1005E8000030A40010140030A7000030A60000302E
:1005F800A5000030A4002708803AFF002308803AAD
:100608007F02031D112B22082602031D112B21082E
:100618002502031D112B2008240203182B2B01305F
:100628000F02F43003190E02031C132B8E018F01E5
:100638000130A407003003180130A5070030031863
:100648000130A607003003180130A707FF2A101051
:100658000800831203138E018F010030F700003069
:10066800F6000030F5000030F40010140030F700F8
:100678000030F6000030F5000030F4007708803ACA
:10068800FF007308803A7F02031D542B720876021C
:10069800031D542B71087502031D542B7008740236
:1006A80003186E2B01300F02F43003190E02031CDD
:1006B800562B8E018F010130F407003003180130EA
:1006C800F507003003180130F60700300318013031
:1006D800F707422B101008000B1C9E2B861E9D2B23
:1006E800003010180130FC00051005110030F3002F
:1006F8000030F2000030F1003230F0002D23831278
:100708000313851485150030F3000030F20005301E
:10071800F100DC30F0002D238312031386177C08C8
:1007280003199A2B8312031310149D2B831203139E
:1007380010100B107B08FF007A088A0079088400E3
:10074800780E8300FE0E7E0E090083120313101428
:100758000030A3000030A2000030A1000230A00049
:100768003208A7003108A6003008A5002F08A40009
:10077800FC21831203130E08B3000F08B400B5015F
:10078800B6013608803AFF002308803A7F02031D2D
:10079800D72B22083502031DD72B21083402031D4D
:1007A800D72B20083302031CAC2B10100800033091
:1007B8008A000408840A820700347234033400343F
:0A07C8000034F5299D29B629CF2938
:02400E0018FF99
:00000001FF
